{
  "contractName": "Dex",
  "abi": [
    {
      "anonymous": false,
      "inputs": [
        {
          "indexed": true,
          "internalType": "address",
          "name": "previousOwner",
          "type": "address"
        },
        {
          "indexed": true,
          "internalType": "address",
          "name": "newOwner",
          "type": "address"
        }
      ],
      "name": "OwnershipTransferred",
      "type": "event"
    },
    {
      "inputs": [
        {
          "internalType": "bytes32",
          "name": "ticker",
          "type": "bytes32"
        },
        {
          "internalType": "address",
          "name": "tokenAddress",
          "type": "address"
        }
      ],
      "name": "addToken",
      "outputs": [],
      "stateMutability": "nonpayable",
      "type": "function"
    },
    {
      "inputs": [
        {
          "internalType": "address",
          "name": "",
          "type": "address"
        },
        {
          "internalType": "bytes32",
          "name": "",
          "type": "bytes32"
        }
      ],
      "name": "balances",
      "outputs": [
        {
          "internalType": "uint256",
          "name": "",
          "type": "uint256"
        }
      ],
      "stateMutability": "view",
      "type": "function"
    },
    {
      "inputs": [
        {
          "internalType": "uint256",
          "name": "amount",
          "type": "uint256"
        },
        {
          "internalType": "bytes32",
          "name": "ticker",
          "type": "bytes32"
        }
      ],
      "name": "deposit",
      "outputs": [],
      "stateMutability": "nonpayable",
      "type": "function"
    },
    {
      "inputs": [],
      "name": "depositETH",
      "outputs": [],
      "stateMutability": "payable",
      "type": "function"
    },
    {
      "inputs": [],
      "name": "nextOrderId",
      "outputs": [
        {
          "internalType": "uint256",
          "name": "",
          "type": "uint256"
        }
      ],
      "stateMutability": "view",
      "type": "function"
    },
    {
      "inputs": [],
      "name": "owner",
      "outputs": [
        {
          "internalType": "address",
          "name": "",
          "type": "address"
        }
      ],
      "stateMutability": "view",
      "type": "function"
    },
    {
      "inputs": [],
      "name": "renounceOwnership",
      "outputs": [],
      "stateMutability": "nonpayable",
      "type": "function"
    },
    {
      "inputs": [
        {
          "internalType": "uint256",
          "name": "",
          "type": "uint256"
        }
      ],
      "name": "tokenList",
      "outputs": [
        {
          "internalType": "bytes32",
          "name": "",
          "type": "bytes32"
        }
      ],
      "stateMutability": "view",
      "type": "function"
    },
    {
      "inputs": [
        {
          "internalType": "bytes32",
          "name": "",
          "type": "bytes32"
        }
      ],
      "name": "tokenMapping",
      "outputs": [
        {
          "internalType": "bytes32",
          "name": "ticker",
          "type": "bytes32"
        },
        {
          "internalType": "address",
          "name": "tokenAddress",
          "type": "address"
        }
      ],
      "stateMutability": "view",
      "type": "function"
    },
    {
      "inputs": [
        {
          "internalType": "address",
          "name": "newOwner",
          "type": "address"
        }
      ],
      "name": "transferOwnership",
      "outputs": [],
      "stateMutability": "nonpayable",
      "type": "function"
    },
    {
      "inputs": [
        {
          "internalType": "uint256",
          "name": "amount",
          "type": "uint256"
        },
        {
          "internalType": "bytes32",
          "name": "ticker",
          "type": "bytes32"
        }
      ],
      "name": "withdraw",
      "outputs": [],
      "stateMutability": "nonpayable",
      "type": "function"
    },
    {
      "inputs": [
        {
          "internalType": "uint256",
          "name": "amount",
          "type": "uint256"
        }
      ],
      "name": "withdrawETH",
      "outputs": [],
      "stateMutability": "nonpayable",
      "type": "function"
    },
    {
      "inputs": [
        {
          "internalType": "bytes32",
          "name": "ticker",
          "type": "bytes32"
        },
        {
          "internalType": "enum Dex.Side",
          "name": "side",
          "type": "uint8"
        }
      ],
      "name": "getOrderBook",
      "outputs": [
        {
          "components": [
            {
              "internalType": "uint256",
              "name": "id",
              "type": "uint256"
            },
            {
              "internalType": "address",
              "name": "trader",
              "type": "address"
            },
            {
              "internalType": "enum Dex.Side",
              "name": "side",
              "type": "uint8"
            },
            {
              "internalType": "bytes32",
              "name": "ticker",
              "type": "bytes32"
            },
            {
              "internalType": "uint256",
              "name": "amount",
              "type": "uint256"
            },
            {
              "internalType": "uint256",
              "name": "price",
              "type": "uint256"
            },
            {
              "internalType": "uint256",
              "name": "filled",
              "type": "uint256"
            }
          ],
          "internalType": "struct Dex.Order[]",
          "name": "",
          "type": "tuple[]"
        }
      ],
      "stateMutability": "view",
      "type": "function"
    },
    {
      "inputs": [
        {
          "internalType": "enum Dex.Side",
          "name": "side",
          "type": "uint8"
        },
        {
          "internalType": "bytes32",
          "name": "ticker",
          "type": "bytes32"
        },
        {
          "internalType": "uint256",
          "name": "amount",
          "type": "uint256"
        },
        {
          "internalType": "uint256",
          "name": "price",
          "type": "uint256"
        }
      ],
      "name": "createLimitOrder",
      "outputs": [],
      "stateMutability": "nonpayable",
      "type": "function"
    },
    {
      "inputs": [
        {
          "internalType": "enum Dex.Side",
          "name": "side",
          "type": "uint8"
        },
        {
          "internalType": "bytes32",
          "name": "ticker",
          "type": "bytes32"
        },
        {
          "internalType": "uint256",
          "name": "amount",
          "type": "uint256"
        }
      ],
      "name": "createMarketOrder",
      "outputs": [],
      "stateMutability": "nonpayable",
      "type": "function"
    }
  ],
  "bytecode": "0x608060405260006004553480156200001657600080fd5b50600062000029620000cd60201b60201c565b9050806000806101000a81548173ffffffffffffffffffffffffffffffffffffffff021916908373ffffffffffffffffffffffffffffffffffffffff1602179055508073ffffffffffffffffffffffffffffffffffffffff16600073ffffffffffffffffffffffffffffffffffffffff167f8be0079c531659141344cd1fd0a4f28419497f9722a3daafe3b4186f6b6457e060405160405180910390a350620000d5565b600033905090565b61423380620000e56000396000f3fe6080604052600436106100e85760003560e01c806399ec2f1c1161008a578063c9630cb011610059578063c9630cb0146102f3578063f14210a61461031c578063f2fde38b14610345578063f6326fb31461036e576100e8565b806399ec2f1c146102275780639ead722214610250578063a8d2021a1461028d578063ba58ea68146102b6576100e8565b80636f3b62f9116100c65780636f3b62f914610193578063715018a6146101bc5780638da5cb5b146101d35780639776aacf146101fe576100e8565b80631f14df69146100ed5780632a58b3301461012a578063667cb4ba14610155575b600080fd5b3480156100f957600080fd5b50610114600480360381019061010f9190613785565b610378565b6040516101219190613f0b565b60405180910390f35b34801561013657600080fd5b5061013f61039d565b60405161014c9190613f0b565b60405180910390f35b34801561016157600080fd5b5061017c600480360381019061017791906137ea565b6103a3565b60405161018a929190613e02565b60405180910390f35b34801561019f57600080fd5b506101ba60048036038101906101b591906138da565b6103e7565b005b3480156101c857600080fd5b506101d1611471565b005b3480156101df57600080fd5b506101e86115ab565b6040516101f59190613d4a565b60405180910390f35b34801561020a57600080fd5b5061022560048036038101906102209190613813565b6115d4565b005b34801561023357600080fd5b5061024e6004803603810190610249919061388b565b61170f565b005b34801561025c57600080fd5b506102776004803603810190610272919061393d565b612b1f565b6040516102849190613de7565b60405180910390f35b34801561029957600080fd5b506102b460048036038101906102af9190613966565b612b43565b005b3480156102c257600080fd5b506102dd60048036038101906102d8919061384f565b612dfd565b6040516102ea9190613dc5565b60405180910390f35b3480156102ff57600080fd5b5061031a60048036038101906103159190613966565b612fc8565b005b34801561032857600080fd5b50610343600480360381019061033e919061393d565b6131f1565b005b34801561035157600080fd5b5061036c6004803603810190610367919061375c565b613407565b005b6103766135b0565b005b6003602052816000526040600020602052806000526040600020600091509150505481565b60045481565b60016020528060005260406000206000915090508060000154908060010160009054906101000a900473ffffffffffffffffffffffffffffffffffffffff16905082565b82600073ffffffffffffffffffffffffffffffffffffffff166001600083815260200190815260200160002060010160009054906101000a900473ffffffffffffffffffffffffffffffffffffffff1673ffffffffffffffffffffffffffffffffffffffff16141561048e576040517f08c379a000000000000000000000000000000000000000000000000000000000815260040161048590613e8b565b60405180910390fd5b600060018111156104c8577f4e487b7100000000000000000000000000000000000000000000000000000000600052602160045260246000fd5b856001811115610501577f4e487b7100000000000000000000000000000000000000000000000000000000600052602160045260246000fd5b14156105d15761051a82846136a990919063ffffffff16565b600360003373ffffffffffffffffffffffffffffffffffffffff1673ffffffffffffffffffffffffffffffffffffffff16815260200190815260200160002060007f455448000000000000000000000000000000000000000000000000000000000081526020019081526020016000205410156105cc576040517f08c379a00000000000000000000000000000000000000000000000000000000081526004016105c390613eab565b60405180910390fd5b6106de565b60018081111561060a577f4e487b7100000000000000000000000000000000000000000000000000000000600052602160045260246000fd5b856001811115610643577f4e487b7100000000000000000000000000000000000000000000000000000000600052602160045260246000fd5b14156106dd5782600360003373ffffffffffffffffffffffffffffffffffffffff1673ffffffffffffffffffffffffffffffffffffffff16815260200190815260200160002060008681526020019081526020016000205410156106dc576040517f08c379a00000000000000000000000000000000000000000000000000000000081526004016106d390613eab565b60405180910390fd5b5b5b600060056000868152602001908152602001600020600087600181111561072e577f4e487b7100000000000000000000000000000000000000000000000000000000600052602160045260246000fd5b81526020019081526020016000209050806040518060e0016040528060045481526020013373ffffffffffffffffffffffffffffffffffffffff1681526020018860018111156107a7577f4e487b7100000000000000000000000000000000000000000000000000000000600052602160045260246000fd5b8152602001878152602001868152602001858152602001600081525090806001815401808255809150506001900390600052602060002090600602016000909190919091506000820151816000015560208201518160010160006101000a81548173ffffffffffffffffffffffffffffffffffffffff021916908373ffffffffffffffffffffffffffffffffffffffff16021790555060408201518160010160146101000a81548160ff0219169083600181111561088e577f4e487b7100000000000000000000000000000000000000000000000000000000600052602160045260246000fd5b0217905550606082015181600201556080820151816003015560a0820151816004015560c08201518160050155505060008180549050905060006001811115610900577f4e487b7100000000000000000000000000000000000000000000000000000000600052602160045260246000fd5b876001811115610939577f4e487b7100000000000000000000000000000000000000000000000000000000600052602160045260246000fd5b1480156109465750600181115b15610e8d576000600190505b60018261095f919061402b565b8111610e87578260018284610974919061402b565b61097e919061402b565b815481106109b5577f4e487b7100000000000000000000000000000000000000000000000000000000600052603260045260246000fd5b9060005260206000209060060201600401548382846109d4919061402b565b81548110610a0b577f4e487b7100000000000000000000000000000000000000000000000000000000600052603260045260246000fd5b90600052602060002090600602016004015410610e74576000838284610a31919061402b565b81548110610a68577f4e487b7100000000000000000000000000000000000000000000000000000000600052603260045260246000fd5b90600052602060002090600602016040518060e0016040529081600082015481526020016001820160009054906101000a900473ffffffffffffffffffffffffffffffffffffffff1673ffffffffffffffffffffffffffffffffffffffff1673ffffffffffffffffffffffffffffffffffffffff1681526020016001820160149054906101000a900460ff166001811115610b2c577f4e487b7100000000000000000000000000000000000000000000000000000000600052602160045260246000fd5b6001811115610b64577f4e487b7100000000000000000000000000000000000000000000000000000000600052602160045260246000fd5b815260200160028201548152602001600382015481526020016004820154815260200160058201548152505090508360018385610ba1919061402b565b610bab919061402b565b81548110610be2577f4e487b7100000000000000000000000000000000000000000000000000000000600052603260045260246000fd5b9060005260206000209060060201848385610bfd919061402b565b81548110610c34577f4e487b7100000000000000000000000000000000000000000000000000000000600052603260045260246000fd5b9060005260206000209060060201600082015481600001556001820160009054906101000a900473ffffffffffffffffffffffffffffffffffffffff168160010160006101000a81548173ffffffffffffffffffffffffffffffffffffffff021916908373ffffffffffffffffffffffffffffffffffffffff1602179055506001820160149054906101000a900460ff168160010160146101000a81548160ff02191690836001811115610d11577f4e487b7100000000000000000000000000000000000000000000000000000000600052602160045260246000fd5b021790555060028201548160020155600382015481600301556004820154816004015560058201548160050155905050808460018486610d51919061402b565b610d5b919061402b565b81548110610d92577f4e487b7100000000000000000000000000000000000000000000000000000000600052603260045260246000fd5b90600052602060002090600602016000820151816000015560208201518160010160006101000a81548173ffffffffffffffffffffffffffffffffffffffff021916908373ffffffffffffffffffffffffffffffffffffffff16021790555060408201518160010160146101000a81548160ff02191690836001811115610e42577f4e487b7100000000000000000000000000000000000000000000000000000000600052602160045260246000fd5b0217905550606082015181600201556080820151816003015560a0820151816004015560c08201518160050155905050505b8080610e7f906140d6565b915050610952565b50611450565b600180811115610ec6577f4e487b7100000000000000000000000000000000000000000000000000000000600052602160045260246000fd5b876001811115610eff577f4e487b7100000000000000000000000000000000000000000000000000000000600052602160045260246000fd5b148015610f0c5750600181115b1561144f576000600190505b600182610f25919061402b565b811161144d578260018284610f3a919061402b565b610f44919061402b565b81548110610f7b577f4e487b7100000000000000000000000000000000000000000000000000000000600052603260045260246000fd5b906000526020600020906006020160040154838284610f9a919061402b565b81548110610fd1577f4e487b7100000000000000000000000000000000000000000000000000000000600052603260045260246000fd5b9060005260206000209060060201600401541161143a576000838284610ff7919061402b565b8154811061102e577f4e487b7100000000000000000000000000000000000000000000000000000000600052603260045260246000fd5b90600052602060002090600602016040518060e0016040529081600082015481526020016001820160009054906101000a900473ffffffffffffffffffffffffffffffffffffffff1673ffffffffffffffffffffffffffffffffffffffff1673ffffffffffffffffffffffffffffffffffffffff1681526020016001820160149054906101000a900460ff1660018111156110f2577f4e487b7100000000000000000000000000000000000000000000000000000000600052602160045260246000fd5b600181111561112a577f4e487b7100000000000000000000000000000000000000000000000000000000600052602160045260246000fd5b815260200160028201548152602001600382015481526020016004820154815260200160058201548152505090508360018385611167919061402b565b611171919061402b565b815481106111a8577f4e487b7100000000000000000000000000000000000000000000000000000000600052603260045260246000fd5b90600052602060002090600602018483856111c3919061402b565b815481106111fa577f4e487b7100000000000000000000000000000000000000000000000000000000600052603260045260246000fd5b9060005260206000209060060201600082015481600001556001820160009054906101000a900473ffffffffffffffffffffffffffffffffffffffff168160010160006101000a81548173ffffffffffffffffffffffffffffffffffffffff021916908373ffffffffffffffffffffffffffffffffffffffff1602179055506001820160149054906101000a900460ff168160010160146101000a81548160ff021916908360018111156112d7577f4e487b7100000000000000000000000000000000000000000000000000000000600052602160045260246000fd5b021790555060028201548160020155600382015481600301556004820154816004015560058201548160050155905050808460018486611317919061402b565b611321919061402b565b81548110611358577f4e487b7100000000000000000000000000000000000000000000000000000000600052603260045260246000fd5b90600052602060002090600602016000820151816000015560208201518160010160006101000a81548173ffffffffffffffffffffffffffffffffffffffff021916908373ffffffffffffffffffffffffffffffffffffffff16021790555060408201518160010160146101000a81548160ff02191690836001811115611408577f4e487b7100000000000000000000000000000000000000000000000000000000600052602160045260246000fd5b0217905550606082015181600201556080820151816003015560a0820151816004015560c08201518160050155905050505b8080611445906140d6565b915050610f18565b505b5b60046000815480929190611463906140d6565b919050555050505050505050565b6114796136bf565b73ffffffffffffffffffffffffffffffffffffffff166114976115ab565b73ffffffffffffffffffffffffffffffffffffffff16146114ed576040517f08c379a00000000000000000000000000000000000000000000000000000000081526004016114e490613ecb565b60405180910390fd5b600073ffffffffffffffffffffffffffffffffffffffff1660008054906101000a900473ffffffffffffffffffffffffffffffffffffffff1673ffffffffffffffffffffffffffffffffffffffff167f8be0079c531659141344cd1fd0a4f28419497f9722a3daafe3b4186f6b6457e060405160405180910390a360008060006101000a81548173ffffffffffffffffffffffffffffffffffffffff021916908373ffffffffffffffffffffffffffffffffffffffff160217905550565b60008060009054906101000a900473ffffffffffffffffffffffffffffffffffffffff16905090565b6115dc6136bf565b73ffffffffffffffffffffffffffffffffffffffff166115fa6115ab565b73ffffffffffffffffffffffffffffffffffffffff1614611650576040517f08c379a000000000000000000000000000000000000000000000000000000000815260040161164790613ecb565b60405180910390fd5b60405180604001604052808381526020018273ffffffffffffffffffffffffffffffffffffffff16815250600160008481526020019081526020016000206000820151816000015560208201518160010160006101000a81548173ffffffffffffffffffffffffffffffffffffffff021916908373ffffffffffffffffffffffffffffffffffffffff16021790555090505060028290806001815401808255809150506001900390600052602060002001600090919091909150555050565b81600073ffffffffffffffffffffffffffffffffffffffff166001600083815260200190815260200160002060010160009054906101000a900473ffffffffffffffffffffffffffffffffffffffff1673ffffffffffffffffffffffffffffffffffffffff1614156117b6576040517f08c379a00000000000000000000000000000000000000000000000000000000081526004016117ad90613e8b565b60405180910390fd5b60008060018111156117f1577f4e487b7100000000000000000000000000000000000000000000000000000000600052602160045260246000fd5b85600181111561182a577f4e487b7100000000000000000000000000000000000000000000000000000000600052602160045260246000fd5b141561183557600190505b60018081111561186e577f4e487b7100000000000000000000000000000000000000000000000000000000600052602160045260246000fd5b8560018111156118a7577f4e487b7100000000000000000000000000000000000000000000000000000000600052602160045260246000fd5b141561190f5782600360003373ffffffffffffffffffffffffffffffffffffffff1673ffffffffffffffffffffffffffffffffffffffff168152602001908152602001600020600086815260200190815260200160002054101561190a57600080fd5b600090505b600060056000868152602001908152602001600020600083815260200190815260200160002090506000805b82805490508110801561194d57508582105b1561282b57600083828154811061198d577f4e487b7100000000000000000000000000000000000000000000000000000000600052603260045260246000fd5b906000526020600020906006020160030154905060008483815481106119dc577f4e487b7100000000000000000000000000000000000000000000000000000000600052603260045260246000fd5b906000526020600020906006020160040154905060006001811115611a2a577f4e487b7100000000000000000000000000000000000000000000000000000000600052602160045260246000fd5b8a6001811115611a63577f4e487b7100000000000000000000000000000000000000000000000000000000600052602160045260246000fd5b1415611bdf5760005b611a9182611a8383866136c790919063ffffffff16565b6136a990919063ffffffff16565b600360003373ffffffffffffffffffffffffffffffffffffffff1673ffffffffffffffffffffffffffffffffffffffff16815260200190815260200160002060007f45544800000000000000000000000000000000000000000000000000000000008152602001908152602001600020541015611b1b578080611b13906140d6565b915050611a6c565b611b2e81846136c790919063ffffffff16565b85611b399190613f7b565b94506000851415611b7f576040517f08c379a0000000000000000000000000000000000000000000000000000000008152600401611b7690613e2b565b60405180910390fd5b6000811415611bd9576001868581548110611bc3577f4e487b7100000000000000000000000000000000000000000000000000000000600052603260045260246000fd5b9060005260206000209060060201600501819055505b50611c4f565b87821115611bef57879350611c4e565b8184611bfb9190613f7b565b93506001858481548110611c38577f4e487b7100000000000000000000000000000000000000000000000000000000600052603260045260246000fd5b9060005260206000209060060201600501819055505b5b6000858481548110611c8a577f4e487b7100000000000000000000000000000000000000000000000000000000600052603260045260246000fd5b9060005260206000209060060201600501541415611d045783858481548110611cdc577f4e487b7100000000000000000000000000000000000000000000000000000000600052603260045260246000fd5b90600052602060002090600602016003016000828254611cfc919061402b565b925050819055505b60006001811115611d3e577f4e487b7100000000000000000000000000000000000000000000000000000000600052602160045260246000fd5b8a6001811115611d77577f4e487b7100000000000000000000000000000000000000000000000000000000600052602160045260246000fd5b14156122ed5760008414611dc0576040517f08c379a0000000000000000000000000000000000000000000000000000000008152600401611db790613e2b565b60405180910390fd5b611e55611dd682866136a990919063ffffffff16565b600360003373ffffffffffffffffffffffffffffffffffffffff1673ffffffffffffffffffffffffffffffffffffffff16815260200190815260200160002060007f45544800000000000000000000000000000000000000000000000000000000008152602001908152602001600020546136c790919063ffffffff16565b600360003373ffffffffffffffffffffffffffffffffffffffff1673ffffffffffffffffffffffffffffffffffffffff16815260200190815260200160002060007f4554480000000000000000000000000000000000000000000000000000000000815260200190815260200160002081905550611f968460036000888781548110611f0a577f4e487b7100000000000000000000000000000000000000000000000000000000600052603260045260246000fd5b906000526020600020906006020160010160009054906101000a900473ffffffffffffffffffffffffffffffffffffffff1673ffffffffffffffffffffffffffffffffffffffff1673ffffffffffffffffffffffffffffffffffffffff16815260200190815260200160002060008c8152602001908152602001600020546136c790919063ffffffff16565b60036000878681548110611fd3577f4e487b7100000000000000000000000000000000000000000000000000000000600052603260045260246000fd5b906000526020600020906006020160010160009054906101000a900473ffffffffffffffffffffffffffffffffffffffff1673ffffffffffffffffffffffffffffffffffffffff1673ffffffffffffffffffffffffffffffffffffffff16815260200190815260200160002060008b8152602001908152602001600020819055506120b784600360003373ffffffffffffffffffffffffffffffffffffffff1673ffffffffffffffffffffffffffffffffffffffff16815260200190815260200160002060008c8152602001908152602001600020546136dd90919063ffffffff16565b600360003373ffffffffffffffffffffffffffffffffffffffff1673ffffffffffffffffffffffffffffffffffffffff16815260200190815260200160002060008b81526020019081526020016000208190555061220a61212182866136a990919063ffffffff16565b6003600088878154811061215e577f4e487b7100000000000000000000000000000000000000000000000000000000600052603260045260246000fd5b906000526020600020906006020160010160009054906101000a900473ffffffffffffffffffffffffffffffffffffffff1673ffffffffffffffffffffffffffffffffffffffff1673ffffffffffffffffffffffffffffffffffffffff16815260200190815260200160002060007f45544800000000000000000000000000000000000000000000000000000000008152602001908152602001600020546136dd90919063ffffffff16565b60036000878681548110612247577f4e487b7100000000000000000000000000000000000000000000000000000000600052603260045260246000fd5b906000526020600020906006020160010160009054906101000a900473ffffffffffffffffffffffffffffffffffffffff1673ffffffffffffffffffffffffffffffffffffffff1673ffffffffffffffffffffffffffffffffffffffff16815260200190815260200160002060007f4554480000000000000000000000000000000000000000000000000000000000815260200190815260200160002081905550612816565b61235084600360003373ffffffffffffffffffffffffffffffffffffffff1673ffffffffffffffffffffffffffffffffffffffff16815260200190815260200160002060008c8152602001908152602001600020546136c790919063ffffffff16565b600360003373ffffffffffffffffffffffffffffffffffffffff1673ffffffffffffffffffffffffffffffffffffffff16815260200190815260200160002060008b8152602001908152602001600020819055506124a36123ba82866136a990919063ffffffff16565b600360008887815481106123f7577f4e487b7100000000000000000000000000000000000000000000000000000000600052603260045260246000fd5b906000526020600020906006020160010160009054906101000a900473ffffffffffffffffffffffffffffffffffffffff1673ffffffffffffffffffffffffffffffffffffffff1673ffffffffffffffffffffffffffffffffffffffff16815260200190815260200160002060007f45544800000000000000000000000000000000000000000000000000000000008152602001908152602001600020546136c790919063ffffffff16565b600360008786815481106124e0577f4e487b7100000000000000000000000000000000000000000000000000000000600052603260045260246000fd5b906000526020600020906006020160010160009054906101000a900473ffffffffffffffffffffffffffffffffffffffff1673ffffffffffffffffffffffffffffffffffffffff1673ffffffffffffffffffffffffffffffffffffffff16815260200190815260200160002060007f455448000000000000000000000000000000000000000000000000000000000081526020019081526020016000208190555061261661259782866136a990919063ffffffff16565b600360003373ffffffffffffffffffffffffffffffffffffffff1673ffffffffffffffffffffffffffffffffffffffff16815260200190815260200160002060007f45544800000000000000000000000000000000000000000000000000000000008152602001908152602001600020546136dd90919063ffffffff16565b600360003373ffffffffffffffffffffffffffffffffffffffff1673ffffffffffffffffffffffffffffffffffffffff16815260200190815260200160002060007f455448000000000000000000000000000000000000000000000000000000000081526020019081526020016000208190555061275784600360008887815481106126cb577f4e487b7100000000000000000000000000000000000000000000000000000000600052603260045260246000fd5b906000526020600020906006020160010160009054906101000a900473ffffffffffffffffffffffffffffffffffffffff1673ffffffffffffffffffffffffffffffffffffffff1673ffffffffffffffffffffffffffffffffffffffff16815260200190815260200160002060008c8152602001908152602001600020546136dd90919063ffffffff16565b60036000878681548110612794577f4e487b7100000000000000000000000000000000000000000000000000000000600052603260045260246000fd5b906000526020600020906006020160010160009054906101000a900473ffffffffffffffffffffffffffffffffffffffff1673ffffffffffffffffffffffffffffffffffffffff1673ffffffffffffffffffffffffffffffffffffffff16815260200190815260200160002060008b8152602001908152602001600020819055505b50508080612823906140d6565b91505061193b565b50600082805490501115612b16575b600182600081548110612876577f4e487b7100000000000000000000000000000000000000000000000000000000600052603260045260246000fd5b9060005260206000209060060201600501541415612b155760005b6128a9600184805490506136c790919063ffffffff16565b811015612a5c57826001826128be9190613f7b565b815481106128f5577f4e487b7100000000000000000000000000000000000000000000000000000000600052603260045260246000fd5b906000526020600020906006020183828154811061293c577f4e487b7100000000000000000000000000000000000000000000000000000000600052603260045260246000fd5b9060005260206000209060060201600082015481600001556001820160009054906101000a900473ffffffffffffffffffffffffffffffffffffffff168160010160006101000a81548173ffffffffffffffffffffffffffffffffffffffff021916908373ffffffffffffffffffffffffffffffffffffffff1602179055506001820160149054906101000a900460ff168160010160146101000a81548160ff02191690836001811115612a19577f4e487b7100000000000000000000000000000000000000000000000000000000600052602160045260246000fd5b0217905550600282015481600201556003820154816003015560048201548160040155600582015481600501559050508080612a54906140d6565b915050612891565b5081805480612a94577f4e487b7100000000000000000000000000000000000000000000000000000000600052603160045260246000fd5b60019003818190600052602060002090600602016000808201600090556001820160006101000a81549073ffffffffffffffffffffffffffffffffffffffff02191690556001820160146101000a81549060ff021916905560028201600090556003820160009055600482016000905560058201600090555050905561283a565b5b50505050505050565b60028181548110612b2f57600080fd5b906000526020600020016000915090505481565b80600073ffffffffffffffffffffffffffffffffffffffff166001600083815260200190815260200160002060010160009054906101000a900473ffffffffffffffffffffffffffffffffffffffff1673ffffffffffffffffffffffffffffffffffffffff161415612bea576040517f08c379a0000000000000000000000000000000000000000000000000000000008152600401612be190613e8b565b60405180910390fd5b82600360003373ffffffffffffffffffffffffffffffffffffffff1673ffffffffffffffffffffffffffffffffffffffff1681526020019081526020016000206000848152602001908152602001600020541015612c7d576040517f08c379a0000000000000000000000000000000000000000000000000000000008152600401612c7490613eeb565b60405180910390fd5b612ce083600360003373ffffffffffffffffffffffffffffffffffffffff1673ffffffffffffffffffffffffffffffffffffffff1681526020019081526020016000206000858152602001908152602001600020546136c790919063ffffffff16565b600360003373ffffffffffffffffffffffffffffffffffffffff1673ffffffffffffffffffffffffffffffffffffffff1681526020019081526020016000206000848152602001908152602001600020819055506001600083815260200190815260200160002060010160009054906101000a900473ffffffffffffffffffffffffffffffffffffffff1673ffffffffffffffffffffffffffffffffffffffff1663a9059cbb33856040518363ffffffff1660e01b8152600401612da5929190613d9c565b602060405180830381600087803b158015612dbf57600080fd5b505af1158015612dd3573d6000803e3d6000fd5b505050506040513d601f19601f82011682018060405250810190612df791906137c1565b50505050565b6060600560008481526020019081526020016000206000836001811115612e4d577f4e487b7100000000000000000000000000000000000000000000000000000000600052602160045260246000fd5b8152602001908152602001600020805480602002602001604051908101604052809291908181526020016000905b82821015612fbc57838290600052602060002090600602016040518060e0016040529081600082015481526020016001820160009054906101000a900473ffffffffffffffffffffffffffffffffffffffff1673ffffffffffffffffffffffffffffffffffffffff1673ffffffffffffffffffffffffffffffffffffffff1681526020016001820160149054906101000a900460ff166001811115612f49577f4e487b7100000000000000000000000000000000000000000000000000000000600052602160045260246000fd5b6001811115612f81577f4e487b7100000000000000000000000000000000000000000000000000000000600052602160045260246000fd5b815260200160028201548152602001600382015481526020016004820154815260200160058201548152505081526020019060010190612e7b565b50505050905092915050565b80600073ffffffffffffffffffffffffffffffffffffffff166001600083815260200190815260200160002060010160009054906101000a900473ffffffffffffffffffffffffffffffffffffffff1673ffffffffffffffffffffffffffffffffffffffff16141561306f576040517f08c379a000000000000000000000000000000000000000000000000000000000815260040161306690613e8b565b60405180910390fd5b6001600083815260200190815260200160002060010160009054906101000a900473ffffffffffffffffffffffffffffffffffffffff1673ffffffffffffffffffffffffffffffffffffffff166323b872dd3330866040518463ffffffff1660e01b81526004016130e293929190613d65565b602060405180830381600087803b1580156130fc57600080fd5b505af1158015613110573d6000803e3d6000fd5b505050506040513d601f19601f8201168201806040525081019061313491906137c1565b5061319883600360003373ffffffffffffffffffffffffffffffffffffffff1673ffffffffffffffffffffffffffffffffffffffff1681526020019081526020016000206000858152602001908152602001600020546136dd90919063ffffffff16565b600360003373ffffffffffffffffffffffffffffffffffffffff1673ffffffffffffffffffffffffffffffffffffffff168152602001908152602001600020600084815260200190815260200160002081905550505050565b80600360003373ffffffffffffffffffffffffffffffffffffffff1673ffffffffffffffffffffffffffffffffffffffff16815260200190815260200160002060007f455448000000000000000000000000000000000000000000000000000000000081526020019081526020016000205410156132a4576040517f08c379a000000000000000000000000000000000000000000000000000000000815260040161329b90613e6b565b60405180910390fd5b61332781600360003373ffffffffffffffffffffffffffffffffffffffff1673ffffffffffffffffffffffffffffffffffffffff16815260200190815260200160002060007f45544800000000000000000000000000000000000000000000000000000000008152602001908152602001600020546136c790919063ffffffff16565b600360003373ffffffffffffffffffffffffffffffffffffffff1673ffffffffffffffffffffffffffffffffffffffff16815260200190815260200160002060007f45544800000000000000000000000000000000000000000000000000000000008152602001908152602001600020819055503373ffffffffffffffffffffffffffffffffffffffff16816040516133bf90613d35565b60006040518083038185875af1925050503d80600081146133fc576040519150601f19603f3d011682016040523d82523d6000602084013e613401565b606091505b50505050565b61340f6136bf565b73ffffffffffffffffffffffffffffffffffffffff1661342d6115ab565b73ffffffffffffffffffffffffffffffffffffffff1614613483576040517f08c379a000000000000000000000000000000000000000000000000000000000815260040161347a90613ecb565b60405180910390fd5b600073ffffffffffffffffffffffffffffffffffffffff168173ffffffffffffffffffffffffffffffffffffffff1614156134f3576040517f08c379a00000000000000000000000000000000000000000000000000000000081526004016134ea90613e4b565b60405180910390fd5b8073ffffffffffffffffffffffffffffffffffffffff1660008054906101000a900473ffffffffffffffffffffffffffffffffffffffff1673ffffffffffffffffffffffffffffffffffffffff167f8be0079c531659141344cd1fd0a4f28419497f9722a3daafe3b4186f6b6457e060405160405180910390a3806000806101000a81548173ffffffffffffffffffffffffffffffffffffffff021916908373ffffffffffffffffffffffffffffffffffffffff16021790555050565b61363334600360003373ffffffffffffffffffffffffffffffffffffffff1673ffffffffffffffffffffffffffffffffffffffff16815260200190815260200160002060007f45544800000000000000000000000000000000000000000000000000000000008152602001908152602001600020546136dd90919063ffffffff16565b600360003373ffffffffffffffffffffffffffffffffffffffff1673ffffffffffffffffffffffffffffffffffffffff16815260200190815260200160002060007f4554480000000000000000000000000000000000000000000000000000000000815260200190815260200160002081905550565b600081836136b79190613fd1565b905092915050565b600033905090565b600081836136d5919061402b565b905092915050565b600081836136eb9190613f7b565b905092915050565b60008135905061370281614191565b92915050565b600081519050613717816141a8565b92915050565b60008135905061372c816141bf565b92915050565b600081359050613741816141d6565b92915050565b600081359050613756816141e6565b92915050565b60006020828403121561376e57600080fd5b600061377c848285016136f3565b91505092915050565b6000806040838503121561379857600080fd5b60006137a6858286016136f3565b92505060206137b78582860161371d565b9150509250929050565b6000602082840312156137d357600080fd5b60006137e184828501613708565b91505092915050565b6000602082840312156137fc57600080fd5b600061380a8482850161371d565b91505092915050565b6000806040838503121561382657600080fd5b60006138348582860161371d565b9250506020613845858286016136f3565b9150509250929050565b6000806040838503121561386257600080fd5b60006138708582860161371d565b925050602061388185828601613732565b9150509250929050565b6000806000606084860312156138a057600080fd5b60006138ae86828701613732565b93505060206138bf8682870161371d565b92505060406138d086828701613747565b9150509250925092565b600080600080608085870312156138f057600080fd5b60006138fe87828801613732565b945050602061390f8782880161371d565b935050604061392087828801613747565b925050606061393187828801613747565b91505092959194509250565b60006020828403121561394f57600080fd5b600061395d84828501613747565b91505092915050565b6000806040838503121561397957600080fd5b600061398785828601613747565b92505060206139988582860161371d565b9150509250929050565b60006139ae8383613c89565b60e08301905092915050565b6139c38161405f565b82525050565b6139d28161405f565b82525050565b60006139e382613f36565b6139ed8185613f4e565b93506139f883613f26565b8060005b83811015613a29578151613a1088826139a2565b9750613a1b83613f41565b9250506001810190506139fc565b5085935050505092915050565b613a3f8161407d565b82525050565b613a4e8161407d565b82525050565b613a5d816140c4565b82525050565b6000613a70602783613f6a565b91507f4e6f7420656e6f7567682045544820746f2066696c6c20627579204d61726b6560008301527f74204f72646572000000000000000000000000000000000000000000000000006020830152604082019050919050565b6000613ad6602683613f6a565b91507f4f776e61626c653a206e6577206f776e657220697320746865207a65726f206160008301527f64647265737300000000000000000000000000000000000000000000000000006020830152604082019050919050565b6000613b3c601283613f6a565b91507f496e7375666669656e742062616c616e636500000000000000000000000000006000830152602082019050919050565b6000613b7c601483613f6a565b91507f546f6b656e20646f6573206e6f742065786973740000000000000000000000006000830152602082019050919050565b6000613bbc601283613f6a565b91507f4e6f7420656e6f7567682062616c616e636500000000000000000000000000006000830152602082019050919050565b6000613bfc602083613f6a565b91507f4f776e61626c653a2063616c6c6572206973206e6f7420746865206f776e65726000830152602082019050919050565b6000613c3c601683613f6a565b91507f42616c616e6365206e6f742073756666696369656e74000000000000000000006000830152602082019050919050565b6000613c7c600083613f5f565b9150600082019050919050565b60e082016000820151613c9f6000850182613d17565b506020820151613cb260208501826139ba565b506040820151613cc56040850182613a54565b506060820151613cd86060850182613a36565b506080820151613ceb6080850182613d17565b5060a0820151613cfe60a0850182613d17565b5060c0820151613d1160c0850182613d17565b50505050565b613d20816140ba565b82525050565b613d2f816140ba565b82525050565b6000613d4082613c6f565b9150819050919050565b6000602082019050613d5f60008301846139c9565b92915050565b6000606082019050613d7a60008301866139c9565b613d8760208301856139c9565b613d946040830184613d26565b949350505050565b6000604082019050613db160008301856139c9565b613dbe6020830184613d26565b9392505050565b60006020820190508181036000830152613ddf81846139d8565b905092915050565b6000602082019050613dfc6000830184613a45565b92915050565b6000604082019050613e176000830185613a45565b613e2460208301846139c9565b9392505050565b60006020820190508181036000830152613e4481613a63565b9050919050565b60006020820190508181036000830152613e6481613ac9565b9050919050565b60006020820190508181036000830152613e8481613b2f565b9050919050565b60006020820190508181036000830152613ea481613b6f565b9050919050565b60006020820190508181036000830152613ec481613baf565b9050919050565b60006020820190508181036000830152613ee481613bef565b9050919050565b60006020820190508181036000830152613f0481613c2f565b9050919050565b6000602082019050613f206000830184613d26565b92915050565b6000819050602082019050919050565b600081519050919050565b6000602082019050919050565b600082825260208201905092915050565b600081905092915050565b600082825260208201905092915050565b6000613f86826140ba565b9150613f91836140ba565b9250827fffffffffffffffffffffffffffffffffffffffffffffffffffffffffffffffff03821115613fc657613fc561411f565b5b828201905092915050565b6000613fdc826140ba565b9150613fe7836140ba565b9250817fffffffffffffffffffffffffffffffffffffffffffffffffffffffffffffffff04831182151516156140205761401f61411f565b5b828202905092915050565b6000614036826140ba565b9150614041836140ba565b9250828210156140545761405361411f565b5b828203905092915050565b600061406a8261409a565b9050919050565b60008115159050919050565b6000819050919050565b60008190506140958261417d565b919050565b600073ffffffffffffffffffffffffffffffffffffffff82169050919050565b6000819050919050565b60006140cf82614087565b9050919050565b60006140e1826140ba565b91507fffffffffffffffffffffffffffffffffffffffffffffffffffffffffffffffff8214156141145761411361411f565b5b600182019050919050565b7f4e487b7100000000000000000000000000000000000000000000000000000000600052601160045260246000fd5b7f4e487b7100000000000000000000000000000000000000000000000000000000600052602160045260246000fd5b6002811061418e5761418d61414e565b5b50565b61419a8161405f565b81146141a557600080fd5b50565b6141b181614071565b81146141bc57600080fd5b50565b6141c88161407d565b81146141d357600080fd5b50565b600281106141e357600080fd5b50565b6141ef816140ba565b81146141fa57600080fd5b5056fea2646970667358221220c57bf0fe504b2aee73fb53a28b373fd57dd83aa2de12ca94de34c5b251fdbaea64736f6c63430008000033",
  "immutableReferences": {},
  "source": "pragma solidity ^0.8.0;\r\npragma experimental ABIEncoderV2;\r\n\r\nimport \"./Wallet.sol\";\r\nimport \"../node_modules/@openzeppelin/contracts/utils/math/SafeMath.sol\";\r\n\r\ncontract Dex is Wallet {\r\n    using SafeMath for uint256;\r\n\r\n    enum Side {\r\n        BUY,\r\n        SELL\r\n    }\r\n\r\n    struct Order {\r\n        uint id;\r\n        address trader;\r\n        Side side;\r\n        bytes32 ticker;\r\n        uint amount;\r\n        uint price;\r\n        uint filled;\r\n    }\r\n\r\n    uint public nextOrderId = 0;\r\n\r\n    mapping(bytes32 => mapping(uint => Order[])) orderBook;\r\n\r\n    function getOrderBook(bytes32 ticker, Side side) view public returns(Order[] memory){\r\n        return orderBook[ticker][uint(side)];\r\n    }\r\n\r\n    function createLimitOrder(Side side, bytes32 ticker, uint amount, uint price) tokenExist(ticker) public {\r\n        if(side == Side.BUY){\r\n            require(balances[msg.sender][\"ETH\"] >= amount.mul(price), \"Not enough balance\");\r\n        }\r\n        else if(side == Side.SELL){\r\n            require(balances[msg.sender][ticker] >= amount, \"Not enough balance\");\r\n        }\r\n        //require(trader == msg.sender);\r\n        //require();\r\n\r\n        Order[] storage orders = orderBook[ticker][uint(side)];\r\n\r\n        orders.push(\r\n            Order(nextOrderId,msg.sender,side,ticker,amount,price,0)\r\n            );\r\n\r\n        uint length = orders.length;\r\n\r\n        if (side == Side.BUY && length > 1){\r\n            for(uint i = 1; i <= length-1; i++){\r\n                if(orders[length-i].price >= orders[length-i-1].price){\r\n                    Order memory tempOrder =  orders[length-i];\r\n                    orders[length-i] = orders[length-i-1];\r\n                    orders[length-i-1] = tempOrder;\r\n                }\r\n            }\r\n        }\r\n        else if (side == Side.SELL && length > 1){\r\n            for(uint i = 1; i <= length-1; i++){\r\n                if(orders[length-i].price <= orders[length-i-1].price){\r\n                    Order memory tempOrder =  orders[length-i];\r\n                    orders[length-i] = orders[length-i-1];\r\n                    orders[length-i-1] = tempOrder;\r\n                }\r\n            }\r\n        }\r\n\r\n        nextOrderId++;\r\n\r\n    }\r\n\r\n    function createMarketOrder(Side side, bytes32 ticker, uint amount) tokenExist(ticker) public {\r\n        uint orderBookSide;\r\n        if(side == Side.BUY){\r\n            orderBookSide = 1;\r\n        }\r\n        if(side == Side.SELL){\r\n            require(balances[msg.sender][ticker] >= amount);\r\n            orderBookSide = 0;\r\n        }\r\n\r\n        Order[] storage orders = orderBook[ticker][orderBookSide];\r\n\r\n        uint totalFilled = 0;\r\n\r\n        for (uint i = 0; i < orders.length && totalFilled < amount; i++) {\r\n            // how much we can fill from order[i]\r\n            uint amountOrder = orders[i].amount;\r\n            uint price = orders[i].price;\r\n            if(side == Side.BUY){\r\n                uint iter = 0;\r\n                while (balances[msg.sender][\"ETH\"] < amountOrder.sub(iter).mul(price)){\r\n                    iter++;\r\n                }\r\n\r\n                totalFilled += amountOrder.sub(iter);\r\n                require(totalFilled != 0, \"Not enough ETH to fill buy Market Order\");\r\n                if(iter == 0){\r\n                    orders[i].filled = 1;\r\n                }\r\n            }\r\n            else {\r\n                if(amountOrder > amount){\r\n                    totalFilled = amount;\r\n                }\r\n                else{\r\n                    totalFilled += amountOrder;\r\n                    orders[i].filled = 1;\r\n                }\r\n            }\r\n\r\n            // Execute Trade & Shift balances between buyer / seller\r\n            if (orders[i].filled == 0){\r\n                orders[i].amount -= totalFilled;\r\n            }\r\n            if(side == Side.BUY){   \r\n                require(totalFilled == 0, \"Not enough ETH to fill buy Market Order\");\r\n                balances[msg.sender][\"ETH\"] = balances[msg.sender][\"ETH\"].sub(totalFilled.mul(price));\r\n                balances[orders[i].trader][ticker] = balances[orders[i].trader][ticker].sub(totalFilled);\r\n                balances[msg.sender][ticker] = balances[msg.sender][ticker].add(totalFilled); \r\n                balances[orders[i].trader][\"ETH\"] = balances[orders[i].trader][\"ETH\"].add(totalFilled.mul(price));\r\n            }\r\n            else{\r\n                balances[msg.sender][ticker] = balances[msg.sender][ticker].sub(totalFilled);\r\n                balances[orders[i].trader][\"ETH\"] = balances[orders[i].trader][\"ETH\"].sub(totalFilled.mul(price));\r\n                balances[msg.sender][\"ETH\"] = balances[msg.sender][\"ETH\"].add(totalFilled.mul(price));\r\n                balances[orders[i].trader][ticker] = balances[orders[i].trader][ticker].add(totalFilled);\r\n            }   \r\n\r\n        }\r\n\r\n        // loop through the order book and remove 100% filled orders\r\n        if (orders.length > 0){\r\n            while(orders[0].filled == 1) {\r\n                for (uint index = 0; index < orders.length.sub(1); index++){\r\n                    orders[index] = orders[index+1];\r\n                    }\r\n                orders.pop();\r\n            }\r\n        }\r\n    }\r\n        \r\n}",
  "sourcePath": "C:/Users/marti/OneDrive/cloud/Documents/Learning/ethereum201/dex/contracts/dex.sol",
  "compiler": {
    "name": "solc",
    "version": "0.8.0+commit.c7dfd78e.Emscripten.clang"
  },
  "schemaVersion": "3.3.4",
  "updatedAt": "2021-05-10T10:18:37.002Z",
  "devdoc": {
    "kind": "dev",
    "methods": {
      "owner()": {
        "details": "Returns the address of the current owner."
      },
      "renounceOwnership()": {
        "details": "Leaves the contract without owner. It will not be possible to call `onlyOwner` functions anymore. Can only be called by the current owner. NOTE: Renouncing ownership will leave the contract without an owner, thereby removing any functionality that is only available to the owner."
      },
      "transferOwnership(address)": {
        "details": "Transfers ownership of the contract to a new account (`newOwner`). Can only be called by the current owner."
      }
    },
    "version": 1
  },
  "userdoc": {
    "kind": "user",
    "methods": {},
    "version": 1
  }
}